{
  "contractName": "ContractFactory",
  "abi": [
    {
      "inputs": [
        {
          "internalType": "address",
          "name": "_daiTokenAddress",
          "type": "address"
        }
      ],
      "stateMutability": "nonpayable",
      "type": "constructor"
    },
    {
      "anonymous": false,
      "inputs": [
        {
          "indexed": false,
          "internalType": "uint256",
          "name": "",
          "type": "uint256"
        }
      ],
      "name": "createdNewDraftContract",
      "type": "event"
    },
    {
      "inputs": [],
      "name": "baseContract",
      "outputs": [
        {
          "internalType": "address",
          "name": "",
          "type": "address"
        }
      ],
      "stateMutability": "view",
      "type": "function",
      "constant": true
    },
    {
      "inputs": [
        {
          "internalType": "uint256",
          "name": "",
          "type": "uint256"
        }
      ],
      "name": "contractsList",
      "outputs": [
        {
          "internalType": "uint256",
          "name": "id",
          "type": "uint256"
        },
        {
          "internalType": "address",
          "name": "contractAddress",
          "type": "address"
        },
        {
          "internalType": "address",
          "name": "initiatingParty",
          "type": "address"
        }
      ],
      "stateMutability": "view",
      "type": "function",
      "constant": true
    },
    {
      "inputs": [],
      "name": "daiTokenAddress",
      "outputs": [
        {
          "internalType": "address",
          "name": "",
          "type": "address"
        }
      ],
      "stateMutability": "view",
      "type": "function",
      "constant": true
    },
    {
      "inputs": [],
      "name": "getContractsCount",
      "outputs": [
        {
          "internalType": "uint256",
          "name": "",
          "type": "uint256"
        }
      ],
      "stateMutability": "view",
      "type": "function",
      "constant": true
    },
    {
      "inputs": [],
      "name": "getMyContracts",
      "outputs": [
        {
          "internalType": "address[]",
          "name": "",
          "type": "address[]"
        }
      ],
      "stateMutability": "view",
      "type": "function",
      "constant": true
    },
    {
      "inputs": [
        {
          "components": [
            {
              "internalType": "bool",
              "name": "isPayable",
              "type": "bool"
            },
            {
              "internalType": "uint256",
              "name": "expiryTime",
              "type": "uint256"
            },
            {
              "internalType": "uint256[]",
              "name": "fundDistribution",
              "type": "uint256[]"
            },
            {
              "internalType": "address",
              "name": "initiatingParty",
              "type": "address"
            },
            {
              "internalType": "address[]",
              "name": "parties",
              "type": "address[]"
            },
            {
              "internalType": "string",
              "name": "contractName",
              "type": "string"
            },
            {
              "internalType": "string",
              "name": "document",
              "type": "string"
            }
          ],
          "internalType": "struct IContractInit.CompleteContractData",
          "name": "_contractData",
          "type": "tuple"
        }
      ],
      "name": "initiateContract",
      "outputs": [],
      "stateMutability": "nonpayable",
      "type": "function"
    }
  ],
  "bytecode": "0x60a06040523480156200001157600080fd5b506040516200505a3803806200505a833981810160405281019062000037919062000105565b806000806101000a81548173ffffffffffffffffffffffffffffffffffffffff021916908373ffffffffffffffffffffffffffffffffffffffff1602179055506040516200008590620000e0565b604051809103906000f080158015620000a2573d6000803e3d6000fd5b5073ffffffffffffffffffffffffffffffffffffffff1660808173ffffffffffffffffffffffffffffffffffffffff1660601b81525050506200017f565b613858806200180283390190565b600081519050620000ff8162000165565b92915050565b6000602082840312156200011857600080fd5b60006200012884828501620000ee565b91505092915050565b60006200013e8262000145565b9050919050565b600073ffffffffffffffffffffffffffffffffffffffff82169050919050565b620001708162000131565b81146200017c57600080fd5b50565b60805160601c61165d620001a5600039600081816101580152610540015261165d6000f3fe608060405234801561001057600080fd5b50600436106100625760003560e01c80632eaee35e146100675780634a43fc7d146100855780635b32619c146100a15780639683584f146100bf578063c81bde15146100dd578063f8079052146100fb575b600080fd5b61006f61012d565b60405161007c9190611064565b60405180910390f35b61009f600480360381019061009a9190610d20565b610151565b005b6100a961053e565b6040516100b69190611064565b60405180910390f35b6100c7610562565b6040516100d49190611148565b60405180910390f35b6100e561056f565b6040516100f291906110b6565b60405180910390f35b61011560048036038101906101109190610d61565b6107e4565b60405161012493929190611163565b60405180910390f35b60008054906101000a900473ffffffffffffffffffffffffffffffffffffffff1681565b600061017c7f000000000000000000000000000000000000000000000000000000000000000061085e565b90506001604051806080016040528060018054905081526020018373ffffffffffffffffffffffffffffffffffffffff1681526020013373ffffffffffffffffffffffffffffffffffffffff1681526020018480608001906101de919061119a565b80806020026020016040519081016040528093929190818152602001838360200280828437600081840152601f19601f8201169050808301925050505050505081525090806001815401808255809150506001900390600052602060002090600402016000909190919091506000820151816000015560208201518160010160006101000a81548173ffffffffffffffffffffffffffffffffffffffff021916908373ffffffffffffffffffffffffffffffffffffffff16021790555060408201518160020160006101000a81548173ffffffffffffffffffffffffffffffffffffffff021916908373ffffffffffffffffffffffffffffffffffffffff16021790555060608201518160030190805190602001906102fe929190610bb8565b5050508073ffffffffffffffffffffffffffffffffffffffff166319ffb9608360008054906101000a900473ffffffffffffffffffffffffffffffffffffffff166040518363ffffffff1660e01b815260040161035c929190611118565b600060405180830381600087803b15801561037657600080fd5b505af115801561038a573d6000803e3d6000fd5b505050508160000160208101906103a19190610cce565b156104f35760008060009054906101000a900473ffffffffffffffffffffffffffffffffffffffff1673ffffffffffffffffffffffffffffffffffffffff166323b872dd338461043f8780604001906103fa91906111f1565b80806020026020016040519081016040528093929190818152602001838360200280828437600081840152601f19601f82011690508083019250505050505050610933565b6040518463ffffffff1660e01b815260040161045d9392919061107f565b602060405180830381600087803b15801561047757600080fd5b505af115801561048b573d6000803e3d6000fd5b505050506040513d601f19601f820116820180604052508101906104af9190610cf7565b9050806104f1576040517f08c379a00000000000000000000000000000000000000000000000000000000081526004016104e8906110d8565b60405180910390fd5b505b7f4c9f2cb57a212dfc6f0c1077b5a129c78ad19ce9f28d69de66cede182e9f03aa60018080549050610525919061147c565b6040516105329190611148565b60405180910390a15050565b7f000000000000000000000000000000000000000000000000000000000000000081565b6000600180549050905090565b60606000805b6001805490508110156105fc576105d733600183815481106105c0577f4e487b7100000000000000000000000000000000000000000000000000000000600052603260045260246000fd5b9060005260206000209060040201600001546109ab565b156105eb5781806105e790611507565b9250505b806105f590611507565b9050610575565b506000808267ffffffffffffffff811115610640577f4e487b7100000000000000000000000000000000000000000000000000000000600052604160045260246000fd5b60405190808252806020026020018201604052801561066e5781602001602082028036833780820191505090505b50905060005b6001805490508110156107da576106d633600183815481106106bf577f4e487b7100000000000000000000000000000000000000000000000000000000600052603260045260246000fd5b9060005260206000209060040201600001546109ab565b156107c95760018181548110610715577f4e487b7100000000000000000000000000000000000000000000000000000000600052603260045260246000fd5b906000526020600020906004020160010160009054906101000a900473ffffffffffffffffffffffffffffffffffffffff16828481518110610780577f4e487b7100000000000000000000000000000000000000000000000000000000600052603260045260246000fd5b602002602001019073ffffffffffffffffffffffffffffffffffffffff16908173ffffffffffffffffffffffffffffffffffffffff168152505082806107c590611507565b9350505b806107d390611507565b9050610674565b5080935050505090565b600181815481106107f457600080fd5b90600052602060002090600402016000915090508060000154908060010160009054906101000a900473ffffffffffffffffffffffffffffffffffffffff16908060020160009054906101000a900473ffffffffffffffffffffffffffffffffffffffff16905083565b60006040517f3d602d80600a3d3981f3363d3d373d3d3d363d7300000000000000000000000081528260601b60148201527f5af43d82803e903d91602b57fd5bf3000000000000000000000000000000000060288201526037816000f0915050600073ffffffffffffffffffffffffffffffffffffffff168173ffffffffffffffffffffffffffffffffffffffff16141561092e576040517f08c379a0000000000000000000000000000000000000000000000000000000008152600401610925906110f8565b60405180910390fd5b919050565b60008060005b83518110156109a15783818151811061097b577f4e487b7100000000000000000000000000000000000000000000000000000000600052603260045260246000fd5b60200260200101518261098e9190611426565b91508061099a90611507565b9050610939565b5080915050919050565b6000808373ffffffffffffffffffffffffffffffffffffffff16600184815481106109ff577f4e487b7100000000000000000000000000000000000000000000000000000000600052603260045260246000fd5b906000526020600020906004020160020160009054906101000a900473ffffffffffffffffffffffffffffffffffffffff1673ffffffffffffffffffffffffffffffffffffffff161415610a565760019050610bae565b60005b60018481548110610a93577f4e487b7100000000000000000000000000000000000000000000000000000000600052603260045260246000fd5b906000526020600020906004020160030180549050811015610bac578473ffffffffffffffffffffffffffffffffffffffff1660018581548110610b00577f4e487b7100000000000000000000000000000000000000000000000000000000600052603260045260246000fd5b90600052602060002090600402016003018281548110610b49577f4e487b7100000000000000000000000000000000000000000000000000000000600052603260045260246000fd5b9060005260206000200160009054906101000a900473ffffffffffffffffffffffffffffffffffffffff1673ffffffffffffffffffffffffffffffffffffffff161415610b995760019150610bac565b8080610ba490611507565b915050610a59565b505b8091505092915050565b828054828255906000526020600020908101928215610c31579160200282015b82811115610c305782518260006101000a81548173ffffffffffffffffffffffffffffffffffffffff021916908373ffffffffffffffffffffffffffffffffffffffff16021790555091602001919060010190610bd8565b5b509050610c3e9190610c42565b5090565b5b80821115610c5b576000816000905550600101610c43565b5090565b600081359050610c6e816115e2565b92915050565b600081359050610c83816115f9565b92915050565b600081519050610c98816115f9565b92915050565b600060e08284031215610cb057600080fd5b81905092915050565b600081359050610cc881611610565b92915050565b600060208284031215610ce057600080fd5b6000610cee84828501610c74565b91505092915050565b600060208284031215610d0957600080fd5b6000610d1784828501610c89565b91505092915050565b600060208284031215610d3257600080fd5b600082013567ffffffffffffffff811115610d4c57600080fd5b610d5884828501610c9e565b91505092915050565b600060208284031215610d7357600080fd5b6000610d8184828501610cb9565b91505092915050565b6000610d968383610da2565b60208301905092915050565b610dab816114b0565b82525050565b610dba816114b0565b82525050565b6000610dcc8385611287565b9350610dd782611248565b8060005b85811015610e1057610ded82846112dc565b610df78882610d8a565b9750610e028361126d565b925050600181019050610ddb565b5085925050509392505050565b6000610e2882611262565b610e328185611298565b9350610e3d83611252565b8060005b83811015610e6e578151610e558882610d8a565b9750610e608361127a565b925050600181019050610e41565b5085935050505092915050565b6000610e8783856112a9565b93507f07ffffffffffffffffffffffffffffffffffffffffffffffffffffffffffffff831115610eb657600080fd5b602083029250610ec78385846114f8565b82840190509392505050565b610edc816114c2565b82525050565b6000610eee83856112ba565b9350610efb8385846114f8565b610f048361157f565b840190509392505050565b6000610f1c6013836112cb565b9150610f2782611590565b602082019050919050565b6000610f3f6016836112cb565b9150610f4a826115b9565b602082019050919050565b600060e08301610f6860008401846113a1565b610f756000860182610ed3565b50610f83602084018461140f565b610f906020860182611046565b50610f9e604084018461134a565b8583036040870152610fb1838284610e7b565b92505050610fc260608401846112dc565b610fcf6060860182610da2565b50610fdd60808401846112f3565b8583036080870152610ff0838284610dc0565b9250505061100160a08401846113b8565b85830360a0870152611014838284610ee2565b9250505061102560c08401846113b8565b85830360c0870152611038838284610ee2565b925050508091505092915050565b61104f816114ee565b82525050565b61105e816114ee565b82525050565b60006020820190506110796000830184610db1565b92915050565b60006060820190506110946000830186610db1565b6110a16020830185610db1565b6110ae6040830184611055565b949350505050565b600060208201905081810360008301526110d08184610e1d565b905092915050565b600060208201905081810360008301526110f181610f0f565b9050919050565b6000602082019050818103600083015261111181610f32565b9050919050565b600060408201905081810360008301526111328185610f55565b90506111416020830184610db1565b9392505050565b600060208201905061115d6000830184611055565b92915050565b60006060820190506111786000830186611055565b6111856020830185610db1565b6111926040830184610db1565b949350505050565b600080833560016020038436030381126111b357600080fd5b80840192508235915067ffffffffffffffff8211156111d157600080fd5b6020830192506020820236038313156111e957600080fd5b509250929050565b6000808335600160200384360303811261120a57600080fd5b80840192508235915067ffffffffffffffff82111561122857600080fd5b60208301925060208202360383131561124057600080fd5b509250929050565b6000819050919050565b6000819050602082019050919050565b600081519050919050565b6000602082019050919050565b6000602082019050919050565b600082825260208201905092915050565b600082825260208201905092915050565b600082825260208201905092915050565b600082825260208201905092915050565b600082825260208201905092915050565b60006112eb6020840184610c5f565b905092915050565b6000808335600160200384360303811261130c57600080fd5b83810192508235915060208301925067ffffffffffffffff82111561133057600080fd5b60208202360384131561134257600080fd5b509250929050565b6000808335600160200384360303811261136357600080fd5b83810192508235915060208301925067ffffffffffffffff82111561138757600080fd5b60208202360384131561139957600080fd5b509250929050565b60006113b06020840184610c74565b905092915050565b600080833560016020038436030381126113d157600080fd5b83810192508235915060208301925067ffffffffffffffff8211156113f557600080fd5b60018202360384131561140757600080fd5b509250929050565b600061141e6020840184610cb9565b905092915050565b6000611431826114ee565b915061143c836114ee565b9250827fffffffffffffffffffffffffffffffffffffffffffffffffffffffffffffffff0382111561147157611470611550565b5b828201905092915050565b6000611487826114ee565b9150611492836114ee565b9250828210156114a5576114a4611550565b5b828203905092915050565b60006114bb826114ce565b9050919050565b60008115159050919050565b600073ffffffffffffffffffffffffffffffffffffffff82169050919050565b6000819050919050565b82818337600083830152505050565b6000611512826114ee565b91507fffffffffffffffffffffffffffffffffffffffffffffffffffffffffffffffff82141561154557611544611550565b5b600182019050919050565b7f4e487b7100000000000000000000000000000000000000000000000000000000600052601160045260246000fd5b6000601f19601f8301169050919050565b7f444149207472616e73666572206661696c656400000000000000000000000000600082015250565b7f455243313136373a20637265617465206661696c656400000000000000000000600082015250565b6115eb816114b0565b81146115f657600080fd5b50565b611602816114c2565b811461160d57600080fd5b50565b611619816114ee565b811461162457600080fd5b5056fea26469706673582212202fbd2cb8b4d35f5edb434e1e2febfd5bd24fa5e32b98edf1c17dd94c8dcfc31264736f6c63430008020033608060405260008060006101000a81548160ff0219169083600581111561004f577f4e487b7100000000000000000000000000000000000000000000000000000000600052602160045260246000fd5b021790555034801561006057600080fd5b506137e8806100706000396000f3fe608060405234801561001057600080fd5b50600436106100ea5760003560e01c806369d2ce621161008c578063c1bd655411610066578063c1bd6554146101c7578063dbb10265146101e5578063e13fddbd14610203578063f10746f41461020d576100ea565b806369d2ce621461016f5780638f96e8501461018d5780639e08503a146101ab576100ea565b806327a232eb116100c857806327a232eb1461013357806331c84ea614610151578063345162031461015b57806343d00d0414610165576100ea565b80630ad7606f146100ef57806319ffb9601461010d57806325ace2a714610129575b600080fd5b6100f761022b565b60405161010491906128fa565b60405180910390f35b610127600480360381019061012291906124b4565b610247565b005b6101316104ef565b005b61013b610509565b6040516101489190612a17565b60405180910390f35b610159610681565b005b61016361083d565b005b61016d6109ac565b005b610177610bce565b60405161018491906128fa565b60405180910390f35b610195610e3b565b6040516101a291906129f5565b60405180910390f35b6101c560048036038101906101c09190612508565b611249565b005b6101cf6114f0565b6040516101dc91906128fa565b60405180910390f35b6101ed6116b2565b6040516101fa91906128fa565b60405180910390f35b61020b611874565b005b610215611ade565b6040516102229190612a17565b60405180910390f35b60006001800154426103e86102409190612ce0565b1015905090565b600060029054906101000a900460ff1661027157600060019054906101000a900460ff161561027a565b610279611c99565b5b6102b9576040517f08c379a00000000000000000000000000000000000000000000000000000000081526004016102b090612995565b60405180910390fd5b60008060029054906101000a900460ff16159050801561030a576001600060026101000a81548160ff0219169083151502179055506001600060016101000a81548160ff0219169083151502179055505b826001818161031991906136ed565b90505081600860006101000a81548173ffffffffffffffffffffffffffffffffffffffff021916908373ffffffffffffffffffffffffffffffffffffffff1602179055508260000160208101906103709190612462565b156104925760005b8380604001906103889190612a89565b9050811015610490578380604001906103a19190612a89565b828181106103d8577f4e487b7100000000000000000000000000000000000000000000000000000000600052603260045260246000fd5b90506020020135600a60008680608001906103f39190612a32565b8581811061042a577f4e487b7100000000000000000000000000000000000000000000000000000000600052603260045260246000fd5b905060200201602081019061043f9190612439565b73ffffffffffffffffffffffffffffffffffffffff1673ffffffffffffffffffffffffffffffffffffffff16815260200190815260200160002081905550808061048890613193565b915050610378565b505b7f3862dd748e1ca79fcd6f7cfb2a40db495da62a25761b04bdddbb073b0e548cd6306040516104c19190612856565b60405180910390a180156104ea5760008060026101000a81548160ff0219169083151502179055505b505050565b6104f761022b565b15610507576105066003611caa565b5b565b6000803373ffffffffffffffffffffffffffffffffffffffff16600160030160009054906101000a900473ffffffffffffffffffffffffffffffffffffffff1673ffffffffffffffffffffffffffffffffffffffff16141561056e5760019050610638565b60005b600160040180549050811015610636573373ffffffffffffffffffffffffffffffffffffffff16600160040182815481106105d5577f4e487b7100000000000000000000000000000000000000000000000000000000600052603260045260246000fd5b9060005260206000200160009054906101000a900473ffffffffffffffffffffffffffffffffffffffff1673ffffffffffffffffffffffffffffffffffffffff1614156106255760019150610636565b8061062f90613193565b9050610571565b505b80610678576040517f08c379a000000000000000000000000000000000000000000000000000000000815260040161066f906129b5565b60405180910390fd5b600b5491505090565b60003373ffffffffffffffffffffffffffffffffffffffff16600160030160009054906101000a900473ffffffffffffffffffffffffffffffffffffffff1673ffffffffffffffffffffffffffffffffffffffff1614156106e557600190506107af565b60005b6001600401805490508110156107ad573373ffffffffffffffffffffffffffffffffffffffff166001600401828154811061074c577f4e487b7100000000000000000000000000000000000000000000000000000000600052603260045260246000fd5b9060005260206000200160009054906101000a900473ffffffffffffffffffffffffffffffffffffffff1673ffffffffffffffffffffffffffffffffffffffff16141561079c57600191506107ad565b806107a690613193565b90506106e8565b505b806107ef576040517f08c379a00000000000000000000000000000000000000000000000000000000081526004016107e6906129b5565b60405180910390fd5b6107f96000611cfc565b610801611dbe565b7fbae8547f50c16c22426d683b8d9d608d52e192e6acbf7bc7b8f6889fcd1fbb6d3330604051610832929190612871565b60405180910390a150565b600160030160009054906101000a900473ffffffffffffffffffffffffffffffffffffffff1673ffffffffffffffffffffffffffffffffffffffff163373ffffffffffffffffffffffffffffffffffffffff16146108d0576040517f08c379a00000000000000000000000000000000000000000000000000000000081526004016108c790612955565b60405180910390fd5b6108da6001611cfc565b600115156108e6610bce565b151514610928576040517f08c379a000000000000000000000000000000000000000000000000000000000815260040161091f90612935565b60405180910390fd5b6001600860146101000a81548160ff02191690831515021790555060011515600160000160009054906101000a900460ff161515141561096b5761096a611e10565b5b610973612071565b7f652558422eb93dbb1c6760141371fc8419f87938d1fa47dec3e6614ce07f72a5306040516109a29190612856565b60405180910390a1565b60003373ffffffffffffffffffffffffffffffffffffffff16600160030160009054906101000a900473ffffffffffffffffffffffffffffffffffffffff1673ffffffffffffffffffffffffffffffffffffffff161415610a105760019050610ada565b60005b600160040180549050811015610ad8573373ffffffffffffffffffffffffffffffffffffffff1660016004018281548110610a77577f4e487b7100000000000000000000000000000000000000000000000000000000600052603260045260246000fd5b9060005260206000200160009054906101000a900473ffffffffffffffffffffffffffffffffffffffff1673ffffffffffffffffffffffffffffffffffffffff161415610ac75760019150610ad8565b80610ad190613193565b9050610a13565b505b80610b1a576040517f08c379a0000000000000000000000000000000000000000000000000000000008152600401610b11906129b5565b60405180910390fd5b610b246000611cfc565b6001600960003373ffffffffffffffffffffffffffffffffffffffff1673ffffffffffffffffffffffffffffffffffffffff16815260200190815260200160002060006101000a81548160ff021916908315150217905550610b84610bce565b15610b9257610b91612071565b5b7f13a17564c18f94d8dc8dad308b368ddecc4b5869143a7e491b1eb6748ea7e67f3330604051610bc3929190612871565b60405180910390a150565b6000803373ffffffffffffffffffffffffffffffffffffffff16600160030160009054906101000a900473ffffffffffffffffffffffffffffffffffffffff1673ffffffffffffffffffffffffffffffffffffffff161415610c335760019050610cfd565b60005b600160040180549050811015610cfb573373ffffffffffffffffffffffffffffffffffffffff1660016004018281548110610c9a577f4e487b7100000000000000000000000000000000000000000000000000000000600052603260045260246000fd5b9060005260206000200160009054906101000a900473ffffffffffffffffffffffffffffffffffffffff1673ffffffffffffffffffffffffffffffffffffffff161415610cea5760019150610cfb565b80610cf490613193565b9050610c36565b505b80610d3d576040517f08c379a0000000000000000000000000000000000000000000000000000000008152600401610d34906129b5565b60405180910390fd5b60006001905060005b600160040180549050811015610e3257600015156009600060016004018481548110610d9b577f4e487b7100000000000000000000000000000000000000000000000000000000600052603260045260246000fd5b9060005260206000200160009054906101000a900473ffffffffffffffffffffffffffffffffffffffff1673ffffffffffffffffffffffffffffffffffffffff1673ffffffffffffffffffffffffffffffffffffffff16815260200190815260200160002060009054906101000a900460ff1615151415610e1f5760009150610e32565b8080610e2a90613193565b915050610d46565b50809250505090565b610e43612375565b60003373ffffffffffffffffffffffffffffffffffffffff16600160030160009054906101000a900473ffffffffffffffffffffffffffffffffffffffff1673ffffffffffffffffffffffffffffffffffffffff161415610ea75760019050610f71565b60005b600160040180549050811015610f6f573373ffffffffffffffffffffffffffffffffffffffff1660016004018281548110610f0e577f4e487b7100000000000000000000000000000000000000000000000000000000600052603260045260246000fd5b9060005260206000200160009054906101000a900473ffffffffffffffffffffffffffffffffffffffff1673ffffffffffffffffffffffffffffffffffffffff161415610f5e5760019150610f6f565b80610f6890613193565b9050610eaa565b505b80610fb1576040517f08c379a0000000000000000000000000000000000000000000000000000000008152600401610fa8906129b5565b60405180910390fd5b60016040518060e00160405290816000820160009054906101000a900460ff16151515158152602001600182015481526020016002820180548060200260200160405190810160405280929190818152602001828054801561103257602002820191906000526020600020905b81548152602001906001019080831161101e575b505050505081526020016003820160009054906101000a900473ffffffffffffffffffffffffffffffffffffffff1673ffffffffffffffffffffffffffffffffffffffff1673ffffffffffffffffffffffffffffffffffffffff1681526020016004820180548060200260200160405190810160405280929190818152602001828054801561111657602002820191906000526020600020905b8160009054906101000a900473ffffffffffffffffffffffffffffffffffffffff1673ffffffffffffffffffffffffffffffffffffffff16815260200190600101908083116110cc575b5050505050815260200160058201805461112f90613145565b80601f016020809104026020016040519081016040528092919081815260200182805461115b90613145565b80156111a85780601f1061117d576101008083540402835291602001916111a8565b820191906000526020600020905b81548152906001019060200180831161118b57829003601f168201915b505050505081526020016006820180546111c190613145565b80601f01602080910402602001604051908101604052809291908181526020018280546111ed90613145565b801561123a5780601f1061120f5761010080835404028352916020019161123a565b820191906000526020600020905b81548152906001019060200180831161121d57829003601f168201915b50505050508152505091505090565b600160030160009054906101000a900473ffffffffffffffffffffffffffffffffffffffff1673ffffffffffffffffffffffffffffffffffffffff163373ffffffffffffffffffffffffffffffffffffffff16146112dc576040517f08c379a00000000000000000000000000000000000000000000000000000000081526004016112d390612955565b60405180910390fd5b6112e66003611cfc565b80600b819055506000600c6000600160030160009054906101000a900473ffffffffffffffffffffffffffffffffffffffff1673ffffffffffffffffffffffffffffffffffffffff1673ffffffffffffffffffffffffffffffffffffffff16815260200190815260200160002060006101000a81548160ff02191690831515021790555060005b60016004018054905081101561144f576000600c6000600160040184815481106113c0577f4e487b7100000000000000000000000000000000000000000000000000000000600052603260045260246000fd5b9060005260206000200160009054906101000a900473ffffffffffffffffffffffffffffffffffffffff1673ffffffffffffffffffffffffffffffffffffffff1673ffffffffffffffffffffffffffffffffffffffff16815260200190815260200160002060006101000a81548160ff021916908315150217905550808061144790613193565b91505061136d565b506001600c60003373ffffffffffffffffffffffffffffffffffffffff1673ffffffffffffffffffffffffffffffffffffffff16815260200190815260200160002060006101000a81548160ff0219169083151502179055506114b26004611caa565b7f74b4095c4f33101f4a2be94bee8041776af1d24c4cc0f0b766a03b5caf93046a3330836040516114e59392919061289a565b60405180910390a150565b6000803373ffffffffffffffffffffffffffffffffffffffff16600160030160009054906101000a900473ffffffffffffffffffffffffffffffffffffffff1673ffffffffffffffffffffffffffffffffffffffff161415611555576001905061161f565b60005b60016004018054905081101561161d573373ffffffffffffffffffffffffffffffffffffffff16600160040182815481106115bc577f4e487b7100000000000000000000000000000000000000000000000000000000600052603260045260246000fd5b9060005260206000200160009054906101000a900473ffffffffffffffffffffffffffffffffffffffff1673ffffffffffffffffffffffffffffffffffffffff16141561160c576001915061161d565b8061161690613193565b9050611558565b505b8061165f576040517f08c379a0000000000000000000000000000000000000000000000000000000008152600401611656906129b5565b60405180910390fd5b600960003373ffffffffffffffffffffffffffffffffffffffff1673ffffffffffffffffffffffffffffffffffffffff16815260200190815260200160002060009054906101000a900460ff1691505090565b6000803373ffffffffffffffffffffffffffffffffffffffff16600160030160009054906101000a900473ffffffffffffffffffffffffffffffffffffffff1673ffffffffffffffffffffffffffffffffffffffff16141561171757600190506117e1565b60005b6001600401805490508110156117df573373ffffffffffffffffffffffffffffffffffffffff166001600401828154811061177e577f4e487b7100000000000000000000000000000000000000000000000000000000600052603260045260246000fd5b9060005260206000200160009054906101000a900473ffffffffffffffffffffffffffffffffffffffff1673ffffffffffffffffffffffffffffffffffffffff1614156117ce57600191506117df565b806117d890613193565b905061171a565b505b80611821576040517f08c379a0000000000000000000000000000000000000000000000000000000008152600401611818906129b5565b60405180910390fd5b600c60003373ffffffffffffffffffffffffffffffffffffffff1673ffffffffffffffffffffffffffffffffffffffff16815260200190815260200160002060009054906101000a900460ff1691505090565b60003373ffffffffffffffffffffffffffffffffffffffff16600160030160009054906101000a900473ffffffffffffffffffffffffffffffffffffffff1673ffffffffffffffffffffffffffffffffffffffff1614156118d857600190506119a2565b60005b6001600401805490508110156119a0573373ffffffffffffffffffffffffffffffffffffffff166001600401828154811061193f577f4e487b7100000000000000000000000000000000000000000000000000000000600052603260045260246000fd5b9060005260206000200160009054906101000a900473ffffffffffffffffffffffffffffffffffffffff1673ffffffffffffffffffffffffffffffffffffffff16141561198f57600191506119a0565b8061199990613193565b90506118db565b505b806119e2576040517f08c379a00000000000000000000000000000000000000000000000000000000081526004016119d9906129b5565b60405180910390fd5b6119ec6004611cfc565b6001600c60003373ffffffffffffffffffffffffffffffffffffffff1673ffffffffffffffffffffffffffffffffffffffff16815260200190815260200160002060006101000a81548160ff0219169083151502179055507f62de419325f223f812a9779e03effce754c8a19fc9d5d0a9fe3ef006839cb6293330604051611a75929190612871565b60405180910390a1611a856121e0565b15611adb57600b546001800181905550611a9f6002611caa565b7fe8c2c5cb3a98ea63a0bcd2697365431550340958170ec5cb6c85f7ed5536031a30600b54604051611ad29291906128d1565b60405180910390a15b50565b6000803373ffffffffffffffffffffffffffffffffffffffff16600160030160009054906101000a900473ffffffffffffffffffffffffffffffffffffffff1673ffffffffffffffffffffffffffffffffffffffff161415611b435760019050611c0d565b60005b600160040180549050811015611c0b573373ffffffffffffffffffffffffffffffffffffffff1660016004018281548110611baa577f4e487b7100000000000000000000000000000000000000000000000000000000600052603260045260246000fd5b9060005260206000200160009054906101000a900473ffffffffffffffffffffffffffffffffffffffff1673ffffffffffffffffffffffffffffffffffffffff161415611bfa5760019150611c0b565b80611c0490613193565b9050611b46565b505b80611c4d576040517f08c379a0000000000000000000000000000000000000000000000000000000008152600401611c44906129b5565b60405180910390fd5b60008054906101000a900460ff166005811115611c93577f4e487b7100000000000000000000000000000000000000000000000000000000600052602160045260246000fd5b91505090565b6000611ca430612352565b15905090565b806000806101000a81548160ff02191690836005811115611cf4577f4e487b7100000000000000000000000000000000000000000000000000000000600052602160045260246000fd5b021790555050565b806005811115611d35577f4e487b7100000000000000000000000000000000000000000000000000000000600052602160045260246000fd5b60008054906101000a900460ff166005811115611d7b577f4e487b7100000000000000000000000000000000000000000000000000000000600052602160045260246000fd5b14611dbb576040517f08c379a0000000000000000000000000000000000000000000000000000000008152600401611db2906129d5565b60405180910390fd5b50565b60056000806101000a81548160ff02191690836005811115611e09577f4e487b7100000000000000000000000000000000000000000000000000000000600052602160045260246000fd5b0217905550565b60005b600160040180549050811015612037576000600860009054906101000a900473ffffffffffffffffffffffffffffffffffffffff1673ffffffffffffffffffffffffffffffffffffffff1663a9059cbb60016004018481548110611ea0577f4e487b7100000000000000000000000000000000000000000000000000000000600052603260045260246000fd5b9060005260206000200160009054906101000a900473ffffffffffffffffffffffffffffffffffffffff16600a600060016004018781548110611f0c577f4e487b7100000000000000000000000000000000000000000000000000000000600052603260045260246000fd5b9060005260206000200160009054906101000a900473ffffffffffffffffffffffffffffffffffffffff1673ffffffffffffffffffffffffffffffffffffffff1673ffffffffffffffffffffffffffffffffffffffff168152602001908152602001600020546040518363ffffffff1660e01b8152600401611f8f9291906128d1565b602060405180830381600087803b158015611fa957600080fd5b505af1158015611fbd573d6000803e3d6000fd5b505050506040513d601f19601f82011682018060405250810190611fe1919061248b565b905080612023576040517f08c379a000000000000000000000000000000000000000000000000000000000815260040161201a90612975565b60405180910390fd5b50808061202f90613193565b915050611e13565b507fdf8d8efd852d6ee5e48dcbe2ab0f55b5413c5d2c3839ee3aed11adab642d0c3e306040516120679190612856565b60405180910390a1565b6002600160008054906101000a900460ff1660058111156120bb577f4e487b7100000000000000000000000000000000000000000000000000000000600052602160045260246000fd5b6120c59190612c8a565b1115612106576040517f08c379a00000000000000000000000000000000000000000000000000000000081526004016120fd90612915565b60405180910390fd5b600160008054906101000a900460ff16600581111561214e577f4e487b7100000000000000000000000000000000000000000000000000000000600052602160045260246000fd5b6121589190612c8a565b6005811115612190577f4e487b7100000000000000000000000000000000000000000000000000000000600052602160045260246000fd5b6000806101000a81548160ff021916908360058111156121d9577f4e487b7100000000000000000000000000000000000000000000000000000000600052602160045260246000fd5b0217905550565b6000600c6000600160030160009054906101000a900473ffffffffffffffffffffffffffffffffffffffff1673ffffffffffffffffffffffffffffffffffffffff1673ffffffffffffffffffffffffffffffffffffffff16815260200190815260200160002060009054906101000a900460ff16612261576000905061234f565b60005b60016004018054905081101561234957600c6000600160040183815481106122b5577f4e487b7100000000000000000000000000000000000000000000000000000000600052603260045260246000fd5b9060005260206000200160009054906101000a900473ffffffffffffffffffffffffffffffffffffffff1673ffffffffffffffffffffffffffffffffffffffff1673ffffffffffffffffffffffffffffffffffffffff16815260200190815260200160002060009054906101000a900460ff1661233657600091505061234f565b808061234190613193565b915050612264565b50600190505b90565b6000808273ffffffffffffffffffffffffffffffffffffffff163b119050919050565b6040518060e001604052806000151581526020016000815260200160608152602001600073ffffffffffffffffffffffffffffffffffffffff1681526020016060815260200160608152602001606081525090565b6000813590506123d981613768565b92915050565b6000813590506123ee8161377f565b92915050565b6000815190506124038161377f565b92915050565b600060e0828403121561241b57600080fd5b81905092915050565b60008135905061243381613796565b92915050565b60006020828403121561244b57600080fd5b6000612459848285016123ca565b91505092915050565b60006020828403121561247457600080fd5b6000612482848285016123df565b91505092915050565b60006020828403121561249d57600080fd5b60006124ab848285016123f4565b91505092915050565b600080604083850312156124c757600080fd5b600083013567ffffffffffffffff8111156124e157600080fd5b6124ed85828601612409565b92505060206124fe858286016123ca565b9150509250929050565b60006020828403121561251a57600080fd5b600061252884828501612424565b91505092915050565b600061253d8383612561565b60208301905092915050565b60006125558383612838565b60208301905092915050565b61256a81612d3a565b82525050565b61257981612d3a565b82525050565b600061258a82612bdf565b6125948185612c46565b935061259f83612b6b565b8060005b838110156125d05781516125b78882612531565b97506125c283612c2c565b9250506001810190506125a3565b5085935050505092915050565b60006125e882612c00565b6125f28185612c57565b93506125fd83612b9a565b8060005b8381101561262e5781516126158882612549565b975061262083612c39565b925050600181019050612601565b5085935050505092915050565b61264481612d4c565b82525050565b61265381612d4c565b82525050565b600061266482612c21565b61266e8185612c68565b935061267e818560208601613027565b612687816133af565b840191505092915050565b600061269f600d83612c79565b91506126aa826133ff565b602082019050919050565b60006126c2601d83612c79565b91506126cd82613428565b602082019050919050565b60006126e5601483612c79565b91506126f082613451565b602082019050919050565b6000612708601383612c79565b91506127138261347a565b602082019050919050565b600061272b602e83612c79565b9150612736826134a3565b604082019050919050565b600061274e601b83612c79565b9150612759826134f2565b602082019050919050565b6000612771601583612c79565b915061277c8261351b565b602082019050919050565b600060e08301600083015161279f600086018261263b565b5060208301516127b26020860182612838565b50604083015184820360408601526127ca82826125dd565b91505060608301516127df6060860182612561565b50608083015184820360808601526127f7828261257f565b91505060a083015184820360a08601526128118282612659565b91505060c083015184820360c086015261282b8282612659565b9150508091505092915050565b61284181612d78565b82525050565b61285081612d78565b82525050565b600060208201905061286b6000830184612570565b92915050565b60006040820190506128866000830185612570565b6128936020830184612570565b9392505050565b60006060820190506128af6000830186612570565b6128bc6020830185612570565b6128c96040830184612847565b949350505050565b60006040820190506128e66000830185612570565b6128f36020830184612847565b9392505050565b600060208201905061290f600083018461264a565b92915050565b6000602082019050818103600083015261292e81612692565b9050919050565b6000602082019050818103600083015261294e816126b5565b9050919050565b6000602082019050818103600083015261296e816126d8565b9050919050565b6000602082019050818103600083015261298e816126fb565b9050919050565b600060208201905081810360008301526129ae8161271e565b9050919050565b600060208201905081810360008301526129ce81612741565b9050919050565b600060208201905081810360008301526129ee81612764565b9050919050565b60006020820190508181036000830152612a0f8184612787565b905092915050565b6000602082019050612a2c6000830184612847565b92915050565b60008083356001602003843603038112612a4b57600080fd5b80840192508235915067ffffffffffffffff821115612a6957600080fd5b602083019250602082023603831315612a8157600080fd5b509250929050565b60008083356001602003843603038112612aa257600080fd5b80840192508235915067ffffffffffffffff821115612ac057600080fd5b602083019250602082023603831315612ad857600080fd5b509250929050565b60008083356001602003843603038112612af957600080fd5b80840192508235915067ffffffffffffffff821115612b1757600080fd5b602083019250600182023603831315612b2f57600080fd5b509250929050565b60008190506001806001038301049050919050565b60008190506001806001038301049050919050565b6000819050919050565b6000819050602082019050919050565b60008190508160005260206000209050919050565b6000819050919050565b6000819050602082019050919050565b60008190508160005260206000209050919050565b60008190508160005260206000209050919050565b600082905092915050565b600081519050919050565b600081549050919050565b600082905092915050565b600081519050919050565b600081549050919050565b600082905092915050565b600081519050919050565b6000602082019050919050565b6000602082019050919050565b600082825260208201905092915050565b600082825260208201905092915050565b600082825260208201905092915050565b600082825260208201905092915050565b6000612c9582612d78565b9150612ca083612d78565b9250827fffffffffffffffffffffffffffffffffffffffffffffffffffffffffffffffff03821115612cd557612cd46131fa565b5b828201905092915050565b6000612ceb82612d78565b9150612cf683612d78565b9250817fffffffffffffffffffffffffffffffffffffffffffffffffffffffffffffffff0483118215151615612d2f57612d2e6131fa565b5b828202905092915050565b6000612d4582612d58565b9050919050565b60008115159050919050565b600073ffffffffffffffffffffffffffffffffffffffff82169050919050565b6000819050919050565b5b81811015612da157612d966000826133e7565b600181019050612d83565b5050565b5b81811015612dc457612db96000826133e7565b600181019050612da6565b5050565b5b81811015612de757612ddc6000826133e7565b600181019050612dc9565b5050565b6000612df682612e0f565b9050919050565b6000612e0882612d4c565b9050919050565b6000612e1a82612e21565b9050919050565b6000612e2c82612d58565b9050919050565b6000612e3e82612d78565b9050919050565b612e4f8383612bd4565b612e5981836132e7565b612e6283612b61565b612e6b83612b7b565b6000805b84811015612ea65783612e81816132a5565b9050612e8e81848661371e565b60208501945060018401935050600181019050612e6f565b5050505050505050565b612eba8383612bf5565b612ec4818361334b565b612ecd83612b90565b612ed683612baa565b6000805b84811015612f115783612eec816132d1565b9050612ef9818486613743565b60208501945060018401935050600181019050612eda565b5050505050505050565b612f258383612c16565b67ffffffffffffffff811115612f3e57612f3d613258565b5b612f488254613145565b600080601f8411601f84111715612f6557612f6285612bbf565b90505b601f831115612f98576020601f85010481016020851015612f84578190505b612f966020601f860104830182612da5565b505b601f841160018114612fc55760008515612fb3578388013590505b612fbd8682613177565b87555061301d565b601f1985168260005b82811015612ff357858a01358255600182019150602086019550602081019050612fce565b8783101561301057858a013561300c601f8a16826131dc565b8355505b6001600289020189555050505b5050505050505050565b60005b8381101561304557808201518184015260208101905061302a565b83811115613054576000848401525b50505050565b60008101600083018061306c816132bb565b905061307881846136ba565b50505060018101602083018061308d816132d1565b905061309981846136fb565b50505060028101604083016130ae8185612a89565b6130b98183866136aa565b505050506003810160608301806130cf816132a5565b90506130db8184613677565b50505060048101608083016130f08185612a32565b6130fb81838661369a565b505050506005810160a083016131118185612ae0565b61311c8183866136dd565b505050506006810160c083016131328185612ae0565b61313d8183866136dd565b505050505050565b6000600282049050600182168061315d57607f821691505b6020821081141561317157613170613229565b5b50919050565b600061318383836131dc565b9150826002028217905092915050565b600061319e82612d78565b91507fffffffffffffffffffffffffffffffffffffffffffffffffffffffffffffffff8214156131d1576131d06131fa565b5b600182019050919050565b60006131ed600019846008026133da565b1980831691505092915050565b7f4e487b7100000000000000000000000000000000000000000000000000000000600052601160045260246000fd5b7f4e487b7100000000000000000000000000000000000000000000000000000000600052602260045260246000fd5b7f4e487b7100000000000000000000000000000000000000000000000000000000600052604160045260246000fd5b6000819050919050565b6000819050919050565b6000819050919050565b600081356132b281613768565b80915050919050565b600081356132c88161377f565b80915050919050565b600081356132de81613796565b80915050919050565b6801000000000000000082111561330157613300613258565b5b61330a81612bea565b828255808310156133465761331e81612b37565b61332784612b37565b61333084612b7b565b8181018382016133408183612d82565b50505050505b505050565b6801000000000000000082111561336557613364613258565b5b61336e81612c0b565b828255808310156133aa5761338281612b4c565b61338b84612b4c565b61339484612baa565b8181018382016133a48183612dc8565b50505050505b505050565b6000601f19601f8301169050919050565b60008160001b9050919050565b600082821b905092915050565b600082821c905092915050565b6133ef6137ad565b6133fa818484613743565b505050565b7f496e76616c696420737461676500000000000000000000000000000000000000600082015250565b7f416c6c20706172746965732068617665206e6f7420617070726f766564000000600082015250565b7f4e6f7420696e6974696174696e67207061727479000000000000000000000000600082015250565b7f444149207472616e73666572206661696c656400000000000000000000000000600082015250565b7f496e697469616c697a61626c653a20636f6e747261637420697320616c72656160008201527f647920696e697469616c697a6564000000000000000000000000000000000000602082015250565b7f4e6f74206120706172747920746f2074686520636f6e74726163740000000000600082015250565b7f4e6f7420696e2065787065637465642073746167650000000000000000000000600082015250565b600060ff613551846133c0565b9350801983169250808416831791505092915050565b600073ffffffffffffffffffffffffffffffffffffffff613587846133c0565b9350801983169250808416831791505092915050565b60007fffffffffffffffffffffffffffffffffffffffffffffffffffffffffffffffff6135c9846133c0565b9350801983169250808416831791505092915050565b60006008830261360373ffffffffffffffffffffffffffffffffffffffff826133cd565b61360d86836133cd565b95508019841693508086168417925050509392505050565b6000600883026136557fffffffffffffffffffffffffffffffffffffffffffffffffffffffffffffffff826133cd565b61365f86836133cd565b95508019841693508086168417925050509392505050565b61368082612deb565b61369361368c82613287565b8354613567565b8255505050565b6136a5838383612e45565b505050565b6136b5838383612eb0565b505050565b6136c382612dfd565b6136d66136cf82613291565b8354613544565b8255505050565b6136e8838383612f1b565b505050565b6136f7828261305a565b5050565b61370482612e33565b6137176137108261329b565b835461359d565b8255505050565b61372783612deb565b61373b61373382613287565b8484546135df565b825550505050565b61374c83612e33565b6137606137588261329b565b848454613625565b825550505050565b61377181612d3a565b811461377c57600080fd5b50565b61378881612d4c565b811461379357600080fd5b50565b61379f81612d78565b81146137aa57600080fd5b50565b60009056fea26469706673582212205323b0100454a06b7125201c0e99d91a18ee129e96b809d2ffe177a8e7c897fe64736f6c63430008020033",
  "immutableReferences": {
    "1175": [
      {
        "length": 32,
        "start": 344
      },
      {
        "length": 32,
        "start": 1344
      }
    ]
  },
  "source": "// SPDX-License-Identifier: MIT\npragma solidity ^0.8.2;\n\nimport \"@openzeppelin/contracts/token/ERC20/IERC20.sol\";\nimport \"@openzeppelin/contracts/proxy/Clones.sol\";\nimport \"./interfaces/IContractInit.sol\";\nimport \"./ContractController.sol\";\n\n/**\n * @title CMSB Contract Factory\n * @dev Create and view draft contracts\n */\n\ncontract ContractFactory is IContractInit {\n\n    address public immutable baseContract;\n    address public daiTokenAddress;\n\n    constructor(address _daiTokenAddress) {\n        daiTokenAddress = _daiTokenAddress;\n        baseContract = address(new ContractController());\n    }\n\n    BaseContractData[] public contractsList;\n\n    event createdNewDraftContract(uint);    \n\n    function getArraySum(uint[] memory array) private pure returns (uint) {\n        uint arraySum;\n        for (uint i=0; i < array.length; ++i) {\n            arraySum += array[i];\n        }\n        return arraySum;\n    }\n\n    function isPartyOf(address _partyAddress, uint _contractId) internal view returns (bool) {\n        bool isParty;\n        if (contractsList[_contractId].initiatingParty == _partyAddress) {\n            isParty = true;\n        } else {\n            for (uint i=0; i < contractsList[_contractId].parties.length; i++) {\n                if (contractsList[_contractId].parties[i] == _partyAddress) {\n                    isParty = true;\n                    break;\n                }\n            }\n        }\n        return isParty;\n    }\n\n    function getContractsCount() external view returns (uint) {\n        return contractsList.length;\n    }\n\n    function getMyContracts() external view returns (address[] memory) {\n        uint j = 0;\n        for (uint i=0; i < contractsList.length; ++i) {\n            if (isPartyOf(msg.sender, contractsList[i].id)) {\n                j++;\n            }\n        }\n        uint k=0;\n        address[] memory myContracts = new address[](j);\n        for (uint i=0; i < contractsList.length; ++i) {\n            if (isPartyOf(msg.sender, contractsList[i].id)) {\n                myContracts[k] = contractsList[i].contractAddress;\n                k++;\n            }\n        }\n        return myContracts;\n    }\n\n    function initiateContract(\n        CompleteContractData calldata _contractData\n    ) \n        external \n    {\n        address newContract = Clones.clone(baseContract);\n        contractsList.push(BaseContractData(contractsList.length, newContract, msg.sender, _contractData.parties));\n        ContractController(newContract).initialize(_contractData, daiTokenAddress);\n        if (_contractData.isPayable) {\n            bool success = IERC20(daiTokenAddress).transferFrom(msg.sender, newContract, getArraySum(_contractData.fundDistribution));\n            require(success, \"DAI transfer failed\");\n        }\n        emit createdNewDraftContract(contractsList.length-1);\n    }\n}",
  "sourcePath": "/Volumes/samsungT5/Contract-Management-System-using-Blockchain/truffle/contracts/ContractFactory.sol",
  "compiler": {
    "name": "solc",
    "version": "0.8.2+commit.661d1103.Emscripten.clang"
  },
  "schemaVersion": "3.4.16",
  "updatedAt": "2026-04-26T12:43:42.080Z",
  "networkType": "ethereum",
  "devdoc": {
    "details": "Create and view draft contracts",
    "kind": "dev",
    "methods": {},
    "title": "CMSB Contract Factory",
    "version": 1
  },
  "userdoc": {
    "kind": "user",
    "methods": {},
    "version": 1
  }
}